:100000000C942A000C94BB0E0C94EE0E0C94210F51
:100010000C9447000C9447000C9447000C94470044
:100020000C9447000C9447000C9447000C94470034
:100030000C9447000C9447000C9447000C94470024
:100040000C9477080C9447000C9447000C944700DC
:100050000C94470011241FBECFE5D8E0DEBFCDBF12
:1000600012E0A0E6B0E0EEECFCE502C005900D92D7
:10007000A230B107D9F712E0A2E0B2E001C01D92B0
:10008000AA31B107E1F70E94192B0C94652E0C944C
:100090000000EF92FF920F931F937B018C0120E0F1
:1000A00030E040E05FE40E94F50388238CF0C80153
:1000B000B70120E030E040E05FE40E94C1010E940F
:1000C00055049B01AC01205030404040504806C0D0
:1000D000C801B7010E9455049B01AC01B901CA01D6
:1000E0001F910F91FF90EF900895A0E0B0E0EBE733
:1000F000F0E00C94252EDC012B01FA019C9192304A
:1001000008F439C1EB018881823008F433C194309E
:1001100069F4843009F02FC111969C91119789815F
:10012000981709F428C1ABECB0E025C1843009F47C
:1001300021C18230A9F4923009F01DC19A01AD01AC
:1001400088E0EA010990AE01E90109929E0181501F
:10015000C1F7E201898111969C918923818308C1AD
:10016000923009F407C112962D903C901397EB0141
:100170008A819B811496AD90BD90CD90DC901797AD
:10018000EC80FD800E811F819101281B390BB90184
:1001900037FF04C066277727621B730B6032710537
:1001A0000CF061C0121613066CF537014801062EDB
:1001B00004C096948794779467940A94D2F721E0C8
:1001C00030E040E050E004C0220F331F441F551FB1
:1001D0006A95D2F721503040404050402E213F21B7
:1001E00040235123211531054105510521F021E01E
:1001F00030E040E050E079018A01E628F72808293C
:1002000019293CC0232BD1F1260E371E350146019A
:10021000062E04C096948794779467940A94D2F734
:1002200021E030E040E050E004C0220F331F441FC3
:10023000551F6A95D2F721503040404050402A2146
:100240003B214C215D21211531054105510521F04E
:1002500021E030E040E050E059016A01A628B728CB
:10026000C828D9280BC0821593052CF01C01AA249C
:10027000BB24650103C0EE24FF24870111969C91E5
:10028000D20111968C91981709F445C0992339F041
:10029000A80197012A193B094C095D0906C0A6016E
:1002A00095012E193F09400B510B57FD08C01182D3
:1002B0003382228224833583468357831DC081E0A5
:1002C00081833382228288279927DC01821B930B4A
:1002D000A40BB50B84839583A683B7830DC0220F2F
:1002E000331F441F551F24833583468357838281E0
:1002F000938101979383828324813581468157813D
:10030000DA01C9010197A109B1098F5F9F4FAF4F72
:10031000BF4328F30BC0918333822282EA0CFB1C7B
:100320000C1D1D1DE482F5820683178383E0808304
:10033000248135814681578157FF1AC0C901AA27F8
:1003400097FDA095BA2F81709070A070B0705695EF
:10035000479537952795822B932BA42BB52B848318
:100360009583A683B7838281938101969383828349
:10037000DF0101C0D201CD01CDB7DEB7E2E10C94BF
:10038000412EA0E2B0E0E7ECF1E00C94312E69835D
:100390007A838B839C832D833E834F835887E9E048
:1003A000EE2EF12CEC0EFD1ECE010196B7010E943F
:1003B00046068E010F5E1F4FCE010596B8010E94C2
:1003C00046068A8991E089278A8BC701B801AE0168
:1003D000475E5F4F0E9475000E947105A096E6E09F
:1003E0000C944D2EA0E2B0E0E8EFF1E00C94312E39
:1003F00069837A838B839C832D833E834F835887C5
:10040000F9E0EF2EF12CEC0EFD1ECE010196B701A6
:100410000E9446068E010F5E1F4FCE010596B80161
:100420000E944606C701B801AE01475E5F4F0E94B9
:1004300075000E947105A096E6E00C944D2EA0E296
:10044000B0E0E5E2F2E00C94252E69837A838B8399
:100450009C832D833E834F835887CE010196BE0136
:10046000675F7F4F0E944606CE010596BE016F5E14
:100470007F4F0E9446069985923088F089898230A4
:10048000C8F0943019F4823051F404C0843029F457
:10049000923081F48BEC90E0C6C0923049F420E0B9
:1004A0009A858A89981321E02A87CE010996BBC0D4
:1004B000823049F420E09A858A89981321E02A8BBA
:1004C000CE014196B0C02D843E844F8458886D88FB
:1004D0007E888F88988CEE24FF248701AA24BB2471
:1004E000650140E050E060E070E0E0E0F0E0C10174
:1004F00081709070892BE9F0E60CF71C081D191D1E
:100500009A01AB012A0D3B1D4C1D5D1D80E090E062
:10051000A0E0B0E0E614F7040805190520F481E036
:1005200090E0A0E0B0E0BA01A901480F591F6A1F8E
:100530007B1FAA0CBB1CCC1CDD1C97FE08C081E0F5
:1005400090E0A0E0B0E0A82AB92ACA2ADB2A3196B6
:10055000E032F10549F0660C771C881C991C569412
:10056000479437942794C3CFFA85EA892B893C892D
:100570008B859C85280F391F2E5F3F4F17C0CA01FE
:1005800081709070892B61F016950795F794E79428
:1005900080E090E0A0E0B0E8E82AF92A0A2B1B2BC3
:1005A00076956795579547952F5F3F4F77FDE7CF36
:1005B0000CC0440F551F661F771F17FD4160EE0CDE
:1005C000FF1C001F111F21503040403090E05907A0
:1005D00090E0690790E4790760F32B8F3C8FDB0193
:1005E000CA018F779070A070B07080349105A1051A
:1005F000B10561F447FD0AC0E114F10401051105DC
:1006000029F0405C5F4F6F4F7F4F40781A8EFE1786
:1006100011F081E08A8F4D8F5E8F6F8F78A383E01A
:10062000898FCE0149960E947105A096E2E10C9453
:10063000412EA8E1B0E0EFE1F3E00C942D2E6983A8
:100640007A838B839C832D833E834F835887B9E0C5
:10065000EB2EF12CEC0EFD1ECE010196B7010E948F
:1006600046068E010F5E1F4FCE010596B8010E940F
:1006700046062985223008F47EC03989323010F4CC
:10068000B8017CC08A859A8989278A87243011F02D
:10069000223031F4231709F06EC06BEC70E06EC0AD
:1006A000343039F41D861E861F86188A1C861B86E8
:1006B00004C0323021F484E08987B7015FC02B8504
:1006C0003C858B899C89281B390B3C872B87ED84C3
:1006D000FE840F851889AD88BE88CF88D88CEA142F
:1006E000FB040C051D0540F4EE0CFF1C001F111F40
:1006F000215030403C872B8720E030E040E050E044
:1007000080E090E0A0E0B0E460E070E0EA14FB0478
:100710000C051D0540F0282B392B4A2B5B2BEA18C2
:10072000FB080C091D09B695A79597958795EE0CC2
:10073000FF1C001F111F6F5F7F4F6F31710531F775
:10074000DA01C9018F779070A070B0708034910584
:10075000A105B10561F427FD0AC0E114F10401050A
:10076000110529F0205C3F4F4F4F5F4F20782D87B8
:100770003E874F87588BBE01675F7F4FCB010E943A
:1007800071056896EAE00C94492EA8E1B0E0EBEC24
:10079000F3E00C94312E69837A838B839C832D83C1
:1007A0003E834F83588789E0E82EF12CEC0EFD1E26
:1007B000CE010196B7010E9446068E010F5E1F4FC3
:1007C000CE010596B8010E9446068985823040F028
:1007D0008989823028F0C701B8010E94BE0601C095
:1007E0008FEF6896E6E00C944D2EA8E1B0E0EBEFB9
:1007F000F3E00C94312E69837A838B839C832D8361
:100800003E834F83588789E0E82EF12CEC0EFD1EC5
:10081000CE010196B7010E9446068E010F5E1F4F62
:10082000CE010596B8010E9446068985823040F0C7
:100830008989823028F0C701B8010E94BE0601C034
:100840008FEF6896E6E00C944D2EA8E1B0E0EBE265
:10085000F4E00C94312E69837A838B839C832D83FF
:100860003E834F83588789E0E82EF12CEC0EFD1E65
:10087000CE010196B7010E9446068E010F5E1F4F02
:10088000CE010596B8010E9446068985823040F067
:100890008989823028F0C701B8010E94BE0601C0D4
:1008A00081E06896E6E00C944D2EACE0B0E0EBE51C
:1008B000F4E00C94352E69837A838B839C83CE017C
:1008C0000196BE016B5F7F4F0E9446068D8182308C
:1008D00061F1823050F1843021F48E81882351F10E
:1008E0002EC02F81388537FD20C06E812F31310514
:1008F0001CF06623F9F023C08EE190E0821B930B7D
:1009000029853A854B855C8504C056954795379572
:1009100027958A95D2F76623B1F05095409530958A
:1009200021953F4F4F4F5F4F0EC020E030E040E039
:1009300050E009C02FEF3FEF4FEF5FE704C020E02A
:1009400030E040E050E8B901CA012C96E2E00C9496
:10095000512EA8E0B0E0EFEAF4E00C942D2E7B01DC
:100960008C01611571058105910519F482E0898377
:1009700060C083E089838EE1C82ED12CDC82CB82DB
:10098000ED82FE820F831887C801B7010E942205FD
:10099000FC013197F7FF3BC0222733272E1B3F0B6B
:1009A00057016801022E04C0D694C794B794A79447
:1009B0000A94D2F740E050E060E070E081E090E01F
:1009C000A0E0B0E004C0880F991FAA1FBB1F2A95A2
:1009D000D2F70197A109B1098E219F21A023B1234C
:1009E0000097A105B10521F041E050E060E070E022
:1009F0004A295B296C297D294D835E836F83788723
:100A00008EE190E08E1B9F0B9C838B8312C03097EE
:100A100081F00E2E04C0EE0CFF1C001F111F0A9463
:100A2000D2F7ED82FE820F831887CE1ADF0ADC82AE
:100A3000CB821A82CE0101960E9471052896EAE0C7
:100A40000C94492EEF92FF920F931F937B018C0120
:100A500080E0E81680E0F80681E0080780E01807EB
:100A600088F48FEFE816F1040105110531F028F044
:100A700088E090E0A0E0B0E017C080E090E0A0E067
:100A8000B0E012C080E0E81680E0F80680E00807D9
:100A900081E0180728F088E190E0A0E0B0E004C011
:100AA00080E190E0A0E0B0E020E230E040E050E003
:100AB000281B390B4A0B5B0B04C016950795F7945E
:100AC000E7948A95D2F7F701ED52FF4F8081281BFA
:100AD000310941095109C9011F910F91FF90EF9010
:100AE0000895DF92EF92FF920F931F93FC01E48031
:100AF000F58006811781D1808081823048F480E0C2
:100B000090E0A0E1B0E0E82AF92A0A2B1B2BA5C04F
:100B1000843009F49FC0823021F4EE24FF24870141
:100B200005C0E114F1040105110519F4E0E0F0E05D
:100B300096C0628173819FEF623879070CF05BC0C9
:100B400022E83FEF261B370B2A3131052CF020E03D
:100B500030E040E050E02AC0B801A701022E04C0F6
:100B600076956795579547950A94D2F781E090E07E
:100B7000A0E0B0E004C0880F991FAA1FBB1F2A95F0
:100B8000D2F70197A109B1098E219F21A023B1239A
:100B90000097A105B10521F081E090E0A0E0B0E070
:100BA0009A01AB01282B392B4A2B5B2BDA01C901A7
:100BB0008F779070A070B07080349105A105B10559
:100BC00039F427FF09C0205C3F4F4F4F5F4F04C0EF
:100BD000215C3F4F4F4F5F4FE0E0F0E02030A0E05E
:100BE0003A07A0E04A07A0E45A0710F0E1E0F0E07D
:100BF00079018A0127C06038710564F5FB01E1586D
:100C0000FF4FD801C7018F779070A070B07080340B
:100C10009105A105B10539F4E7FE0DC080E490E02F
:100C2000A0E0B0E004C08FE390E0A0E0B0E0E80E08
:100C3000F91E0A1F1B1F17FF05C016950795F7948D
:100C4000E794319687E016950795F794E7948A958F
:100C5000D1F705C0EE24FF248701EFEFF0E06E2FFF
:100C6000679566276795902F9F77D794DD24D79453
:100C70008E2F8695492F462B582F5D29B701CA0123
:100C80001F910F91FF90EF90DF900895FC01DB0121
:100C9000408151812281622F6F7770E0221F2227CD
:100CA000221F9381892F880F822B282F30E0991FD4
:100CB0009927991F11969C93119721153105A9F534
:100CC000411551056105710511F482E037C082E8D4
:100CD0009FEF13969C938E9312979A01AB0167E056
:100CE000220F331F441F551F6A95D1F783E08C9361
:100CF0000DC0220F331F441F551F12968D919C91DA
:100D00001397019713969C938E931297203080E04F
:100D1000380780E0480780E4580758F314962D936D
:100D20003D934D935C93179708952F3F310579F4C8
:100D3000411551056105710519F484E08C930895FE
:100D400064FF03C081E08C9312C01C9210C02F5727
:100D5000304013963C932E93129783E08C9387E058
:100D6000440F551F661F771F8A95D1F7706414963C
:100D70004D935D936D937C93179708951F93DC01BA
:100D8000FB019C91923008F447C08081823008F4C6
:100D900043C0943051F411961C91843099F58181AF
:100DA000682F70E0611B71093FC0843021F09230E0
:100DB00031F48230B9F18181882389F12DC01196F7
:100DC0001C9111978230F1F081811817D9F4129695
:100DD0002D913C911397828193818217930794F010
:100DE00028173907BCF014968D919D910D90BC91F8
:100DF000A02D2481358146815781281739074A075C
:100E00005B0718F4112341F00AC082179307A40767
:100E1000B50740F4112319F061E070E005C06FEFF1
:100E20007FEF02C060E070E0CB011F910895DF9377
:100E3000CF93CDB7DEB7A7E2B0E0E7E2F0E0808184
:100E40008F778C93A7E2B0E0E7E2F0E080818064E6
:100E50008C93A7E2B0E0E7E2F0E0808180628C93BF
:100E6000A6E2B0E0E6E2F0E080818F7D8C93A6E21E
:100E7000B0E0E6E2F0E08081887F8C93A6E2B0E00B
:100E8000E6E2F0E0808187608C93A6E2B0E0E6E2E3
:100E9000F0E0808180688C93CF91DF910895DF939B
:100EA000CF93CDB7DEB728970FB6F894DEBF0FBE4D
:100EB000CDBF8E8378876F831D8219821A821B8231
:100EC0001C828F819885009709F466C08091060284
:100ED000882309F05EC081E080930602A7E2B0E0BB
:100EE000E7E2F0E08081807E8C93A7E2B0E0E7E269
:100EF000F0E090818E81892B8C93A6E2B0E0E6E24F
:100F0000F0E0808180648C930BC089819A81AB81F1
:100F1000BC810196A11DB11D89839A83AB83BC83DB
:100F2000E6E2F0E0808182958F70882F90E08170FA
:100F30009070009761F489819A81AB81BC81803582
:100F400023EC920720E0A20720E0B207F0F28981AB
:100F50009A81AB81BC81803523EC920720E0A20707
:100F600020E0B20719F483E08D8310C0A6E2B0E060
:100F7000E6E2F0E0808180618C93E5E2F0E0808140
:100F8000882F90E0EF81F88591838083109206028C
:100F900005C084E08D8302C082E08D838D81289618
:100FA0000FB6F894DEBF0FBECDBFCF91DF9108958D
:100FB000DF93CF9300D000D000D0CDB7DEB78A83C7
:100FC0007C836B835E834D8319828B819C81009728
:100FD000C1F18D819E810097A1F180910602882345
:100FE00069F581E0809306028B819C8190930502D4
:100FF000809304028D819E8190930302809302026C
:10100000A7E2B0E0E7E2F0E08081807E8C93A7E287
:10101000B0E0E7E2F0E090818A81892B8C93A6E230
:10102000B0E0E6E2F0E0808180648C93A6E2B0E07C
:10103000E6E2F0E0808188608C9305C084E08983DB
:1010400002C082E08983898126960FB6F894DEBFBC
:101050000FBECDBFCF91DF910895DF93CF93CDB772
:10106000DEB728970FB6F894DEBF0FBECDBF8A83D8
:101070007C836B835E834D8338872F8319828D81B8
:101080009E81009741F18F819885009721F18B8196
:101090009C81009701F1809106028823C9F481E0C8
:1010A000809306028A81809307028B819C819093B2
:1010B00009028093080210920602EB81FC81808174
:1010C0002D813E814F815885B9010E94D80705C006
:1010D00084E0898302C082E08983898128960FB6E3
:1010E000F894DEBF0FBECDBFCF91DF9108951F9260
:1010F0000F920FB60F9211242F933F934F935F934C
:101100006F937F938F939F93AF93BF93EF93FF93CF
:10111000DF93CF93CDB7DEB7A0910402B091050263
:10112000E5E2F0E08081882F90E08D939C93A6E229
:10113000B0E0E6E2F0E08081877F8C9310920602B7
:1011400080910702823040F18091070281508093A4
:101150000702809104029091050202969093050285
:101160008093040280910802909109020196909365
:10117000090280930802E0910802F091090280813F
:101180002091040230910502409102025091030225
:10119000B9010E94D8070BC080910202909103020E
:1011A000009729F0E0910202F09103020995CF9196
:1011B000DF91FF91EF91BF91AF919F918F917F91BF
:1011C0006F915F914F913F912F910F900FBE0F90B4
:1011D0001F901895DF93CF9300D00F92CDB7DEB755
:1011E00069837A838B8389819A81692F41E00E9488
:1011F0008E098B81813039F489819A81692F40E091
:101200000E94E80A06C089819A81692F41E00E9404
:10121000E80A0F900F900F90CF91DF910895DF9320
:10122000CF9300D00F92CDB7DEB769837A838B83DB
:101230008B81813039F489819A81692F41E00E9444
:10124000E80A06C089819A81692F40E00E94E80A75
:101250000F900F900F90CF91DF910895DF93CF9370
:1012600000D00F92CDB7DEB769837A838B838B81F1
:10127000813039F489819A81692F40E00E94E80A1F
:1012800006C089819A81692F41E00E94E80A0F9087
:101290000F900F90CF91DF910895DF93CF93CDB74B
:1012A000DEB72A970FB6F894DEBF0FBECDBF6A83B4
:1012B0007B838C838A819B81692F9E012F5F3F4FA7
:1012C000A9010E94420C8C81813081F48A818A8735
:1012D0008B81898789811886813011F081E0888728
:1012E0008A85698548850E94E80A0FC08A818F83B4
:1012F0008B818E8389811D82882311F481E08D8307
:101300008F816E814D810E94E80A2A960FB6F8946B
:10131000DEBF0FBECDBFCF91DF910895DF93CF9396
:10132000CDB7DEB728970FB6F894DEBF0FBECDBF9E
:101330008A836B834C8319828B81883008F0F4C0D8
:101340008C81882309F077C08A81282F30E0388784
:101350002F838F8198858130910559F12F813885B0
:10136000223031052CF48F819885009769F060C098
:101370002F8138852230310589F18F81988583301E
:10138000910509F440C054C0AAE3B0E0EAE3F0E0FC
:101390008081482F8B81282F30E081E090E0022E61
:1013A00002C0880F991F0A94E2F7809584238C93DA
:1013B000BDC0A7E3B0E0E7E3F0E08081482F8B8178
:1013C000282F30E081E090E0022E02C0880F991FA4
:1013D0000A94E2F7809584238C93A8C0A4E3B0E03C
:1013E000E4E3F0E08081482F8B81282F30E081E01A
:1013F00090E0022E02C0880F991F0A94E2F78095B0
:1014000084238C9393C0A1E3B0E0E1E3F0E080811A
:10141000482F8B81282F30E081E090E0022E02C01F
:10142000880F991F0A94E2F7809584238C937EC0DD
:1014300081E089837BC08C81813009F072C08A8110
:10144000282F30E03E832D838D819E818130910550
:1014500049F12D813E81223031052CF48D819E8110
:10146000009761F05BC02D813E812230310571F122
:101470008D819E8183309105E9F150C0AAE3B0E0EF
:10148000EAE3F0E08081482F8B81282F30E081E073
:1014900090E0022E02C0880F991F0A94E2F7842B75
:1014A0008C9344C0A7E3B0E0E7E3F0E08081482FED
:1014B0008B81282F30E081E090E0022E02C0880F5F
:1014C000991F0A94E2F7842B8C9330C0A4E3B0E018
:1014D000E4E3F0E08081482F8B81282F30E081E029
:1014E00090E0022E02C0880F991F0A94E2F7842B25
:1014F0008C931CC0A1E3B0E0E1E3F0E08081482FD1
:101500008B81282F30E081E090E0022E02C0880F0E
:10151000991F0A94E2F7842B8C9308C081E0898399
:1015200005C081E0898302C081E089838981289692
:101530000FB6F894DEBF0FBECDBFCF91DF910895F7
:10154000DF93CF9300D000D00F92CDB7DEB78A8360
:101550006B8319828A81282F30E03D832C838C8114
:101560009D8181309105D1F02C813D812230310562
:101570002CF48C819D81009761F01FC02C813D81EE
:101580002230310581F08C819D818330910581F07D
:1015900014C0EAE3F0E08B81808311C0E7E3F0E060
:1015A0008B8180830CC0E4E3F0E08B81808307C0F3
:1015B000E1E3F0E08B81808302C081E0898389814F
:1015C0000F900F900F900F900F90CF91DF91089593
:1015D000DF93CF93CDB7DEB728970FB6F894DEBF71
:1015E0000FBECDBF8A836B834C8319828B81883079
:1015F00008F0F4C08C81882309F077C08A81282FF5
:1016000030E038872F838F8198858130910559F19B
:101610002F813885223031052CF48F8198850097F1
:1016200069F060C02F8138852230310589F18F81C2
:1016300098858330910509F440C054C0ABE3B0E015
:10164000EBE3F0E08081482F8B81282F30E081E0B0
:1016500090E0022E02C0880F991F0A94E2F780954D
:1016600084238C93BDC0A8E3B0E0E8E3F0E0808180
:10167000482F8B81282F30E081E090E0022E02C0BD
:10168000880F991F0A94E2F7809584238C93A8C051
:10169000A5E3B0E0E5E3F0E08081482F8B81282FBF
:1016A00030E081E090E0022E02C0880F991F0A947A
:1016B000E2F7809584238C9393C0A2E3B0E0E2E349
:1016C000F0E08081482F8B81282F30E081E090E08E
:1016D000022E02C0880F991F0A94E2F78095842396
:1016E0008C937EC081E089837BC08C81813009F03E
:1016F00072C08A81282F30E03E832D838D819E81A8
:101700008130910549F12D813E81223031052CF443
:101710008D819E81009761F05BC02D813E812230DA
:10172000310571F18D819E8183309105E9F150C0C1
:10173000ABE3B0E0EBE3F0E08081482F8B81282F12
:1017400030E081E090E0022E02C0880F991F0A94D9
:10175000E2F7842B8C9344C0A8E3B0E0E8E3F0E028
:101760008081482F8B81282F30E081E090E0022E8D
:1017700002C0880F991F0A94E2F7842B8C9330C023
:10178000A5E3B0E0E5E3F0E08081482F8B81282FCE
:1017900030E081E090E0022E02C0880F991F0A9489
:1017A000E2F7842B8C931CC0A2E3B0E0E2E3F0E00C
:1017B0008081482F8B81282F30E081E090E0022E3D
:1017C00002C0880F991F0A94E2F7842B8C9308C0FB
:1017D00081E0898305C081E0898302C081E089833B
:1017E000898128960FB6F894DEBF0FBECDBFCF918A
:1017F000DF910895DF93CF9300D000D00F92CDB743
:10180000DEB78A836B8319828A81282F30E03D837B
:101810002C838C819D8181309105D1F02C813D817B
:10182000223031052CF48C819D81009761F01FC01E
:101830002C813D812230310581F08C819D81833066
:10184000910581F014C0EBE3F0E08B81808311C03F
:10185000E8E3F0E08B8180830CC0E5E3F0E08B816E
:10186000808307C0E2E3F0E08B81808302C081E0E7
:10187000898389810F900F900F900F900F90CF91D7
:10188000DF910895DF93CF93CDB7DEB727970FB6DB
:10189000F894DEBF0FBECDBF8A836B835D834C831C
:1018A00019828C819D81009709F478C08B818830E2
:1018B00008F074C08A81282F30E03F832E834E8148
:1018C0005F814130510559F18E819F8182309105B0
:1018D00034F42E813F812115310569F05CC04E81C1
:1018E0005F814230510579F18E819F81833091056E
:1018F00009F43DC050C0E9E3F0E08081282F30E0DA
:101900008B81882F90E0A90102C0559547958A9553
:10191000E2F7CA018170EC81FD81808341C0E6E37A
:10192000F0E08081282F30E08B81882F90E0A901A2
:1019300002C0559547958A95E2F7CA018170EC81FE
:10194000FD8180832DC0E3E3F0E08081282F30E02B
:101950008B81882F90E0A90102C0559547958A9503
:10196000E2F7CA018170EC81FD81808319C0E0E358
:10197000F0E08081282F30E08B81882F90E0A90152
:1019800002C0559547958A95E2F7CA018170EC81AE
:10199000FD81808305C081E0898302C081E0898365
:1019A000898127960FB6F894DEBF0FBECDBFCF91C9
:1019B000DF910895DF93CF93CDB7DEB7A5E5B0E013
:1019C000E5E5F0E080818E7F8C93A5E5B0E0E5E56C
:1019D000F0E0808182608C93A5E5B0E0E5E5F0E081
:1019E00080818B7F8C93A5E5B0E0E5E5F0E0808118
:1019F00088608C93A4E5B0E0E4E5F0E080818F7B23
:101A00008C93ABE5B0E0EBE5F0E080818F7B8C93CD
:101A1000ABE5B0E0EBE5F0E080818F778C93ABE550
:101A2000B0E0EBE5F0E0808180628C93CF91DF91B4
:101A30000895DF93CF93CDB7DEB729970FB6F8940B
:101A4000DEBF0FBECDBF8A836B8319828A81882354
:101A500009F05EC08B81282F30E039872887888580
:101A600099858130910521F128853985223031050C
:101A70002CF488859985009761F047C028853985C1
:101A80002230310521F1888599858330910571F1E6
:101A90003CC0A5E5B0E0E5E5F0E080818E7F8C9369
:101AA000A5E5B0E0E5E5F0E080818D7F8C93BAC0DC
:101AB000A5E5B0E0E5E5F0E0808181608C93A5E5E7
:101AC000B0E0E5E5F0E080818D7F8C93ABC0A5E5CB
:101AD000B0E0E5E5F0E080818E7F8C93A5E5B0E095
:101AE000E5E5F0E0808182608C939CC0A5E5B0E0E4
:101AF000E5E5F0E0808181608C93A5E5B0E0E5E567
:101B0000F0E0808182608C938DC081E089838AC0FF
:101B10008A81813009F05EC08B81282F30E03F83BD
:101B20002E838E819F818130910521F12E813F810D
:101B3000223031052CF48E819F81009761F047C0DF
:101B40002E813F812230310521F18E819F818330AA
:101B5000910571F13CC0A5E5B0E0E5E5F0E08081DC
:101B60008B7F8C93A5E5B0E0E5E5F0E08081877F91
:101B70008C9358C0A5E5B0E0E5E5F0E08081846095
:101B80008C93A5E5B0E0E5E5F0E08081877F8C935C
:101B900049C0A5E5B0E0E5E5F0E080818B7F8C935E
:101BA000A5E5B0E0E5E5F0E0808188608C933AC07F
:101BB000A5E5B0E0E5E5F0E0808184608C93A5E5E3
:101BC000B0E0E5E5F0E0808188608C932BC081E097
:101BD000898328C08A81823019F58B81282F30E0D3
:101BE0003D832C838C819D818230910531F02C8145
:101BF0003D812330310549F010C0A4E5B0E0E4E5B3
:101C0000F0E080818F7B8C930DC0A4E5B0E0E4E52B
:101C1000F0E0808180648C9305C081E0898302C0FC
:101C200081E08983898129960FB6F894DEBF0FBEC3
:101C3000CDBFCF91DF910895DF93CF9300D000D037
:101C4000CDB7DEB78A8319828A81282F30E03C83A2
:101C50002B838B819C818130910589F02B813C8184
:101C600022303105A1F08B819C810097C1F4ABE556
:101C7000B0E0EBE5F0E0808180648C9312C0ABE5CE
:101C8000B0E0EBE5F0E0808180688C930AC0ABE5C2
:101C9000B0E0EBE5F0E0808180628C9302C081E0EF
:101CA000898389810F900F900F900F90CF91DF91D2
:101CB0000895DF93CF9300D000D0CDB7DEB78A83ED
:101CC00019828A81282F30E03C832B838B819C8171
:101CD0008130910589F02B813C8122303105A1F0C2
:101CE0008B819C810097C1F4ABE5B0E0EBE5F0E0BF
:101CF00080818F7B8C9312C0ABE5B0E0EBE5F0E028
:101D000080818F778C930AC0ABE5B0E0EBE5F0E023
:101D100080818F7D8C9302C081E0898389810F90BF
:101D20000F900F900F90CF91DF910895DF93CF9395
:101D300000D000D0CDB7DEB78A837C836B83198255
:101D40008B819C81009769F08A81882F90E0880FB1
:101D5000991FFC01E65FFD4F8B819C8191838083FD
:101D600002C082E0898389810F900F900F900F90BD
:101D7000CF91DF9108951F920F920FB60F92112409
:101D80002F933F934F935F936F937F938F939F9383
:101D9000AF93BF93EF93FF93DF93CF93CDB7DEB7AE
:101DA00080910A0290910B02009729F0E0910A02BB
:101DB000F0910B020995CF91DF91FF91EF91BF91C7
:101DC000AF919F918F917F916F915F914F913F91D3
:101DD0002F910F900FBE0F901F9018951F920F928A
:101DE0000FB60F9211242F933F934F935F936F93EE
:101DF0007F938F939F93AF93BF93EF93FF93DF9363
:101E0000CF93CDB7DEB780910C0290910D02009771
:101E100029F0E0910C02F0910D020995CF91DF912C
:101E2000FF91EF91BF91AF919F918F917F916F91B2
:101E30005F914F913F912F910F900FBE0F901F9088
:101E400018951F920F920FB60F9211242F933F9364
:101E50004F935F936F937F938F939F93AF93BF93B2
:101E6000EF93FF93DF93CF93CDB7DEB780910E0250
:101E700090910F02009729F0E0910E02F0910F026D
:101E80000995CF91DF91FF91EF91BF91AF919F9114
:101E90008F917F916F915F914F913F912F910F9013
:101EA0000FBE0F901F901895DF93CF93CDB7DEB77D
:101EB000AFE5B0E0EFE5F0E0808180688C93CF91F2
:101EC000DF910895DF93CF93CDB7DEB7AFE5B0E0F4
:101ED000EFE5F0E080818F778C93CF91DF910895CB
:101EE000DF93CF93CDB7DEB763970FB6F894DEBF1D
:101EF0000FBECDBF8FEF898B188ADBC08889882FF2
:101F000090E0FC01EB52FE4F908180E0692F40E0B1
:101F10000E94E80A1F86BAC08F85882F90E0FC01D6
:101F2000ED52FE4F90819E012E5E3F4F80E0692F63
:101F3000A9010E94420C8A89882309F0A4C08F85D8
:101F4000482F50E08889282F30E0CA01880F991F58
:101F5000820F931FFC01E952FE4F8081898B0FC0D5
:101F60008F85882F90E0FC01ED52FE4F90819E01FD
:101F70002E5E3F4F80E0692FA9010E94420C8A89A2
:101F8000882371F380E090E0A0E2B1E48B879C8726
:101F9000AD87BE876B857C858D859E8520E030E092
:101FA0004AE755E40E941F02DC01CB018F8398872A
:101FB000A987BA876F81788589859A8520E030E086
:101FC00040E85FE30E94250488232CF481E090E040
:101FD0009E838D833FC06F81788589859A8520E0B7
:101FE0003FEF4FE757E40E94C50318164CF56B8589
:101FF0007C858D859E8520E030E040E251E40E94A2
:102000001F02DC01CB01BC01CD010E944900DC01B3
:10201000CB019E838D830FC080E991E09C838B83ED
:102020008B819C810197F1F79C838B838D819E81AD
:1020300001979E838D838D819E81009769F714C0DF
:102040006F81788589859A850E944900DC01CB01E2
:102050009E838D838D819E819A83898389819A81D4
:102060000197F1F79A8389838889882F90E0FC0192
:10207000EB52FE4F908180E0692F41E00E94E80A18
:1020800089898B8B1CC08F858F5F8F878F8582306E
:1020900008F442CF8889882F90E0FC01EB52FE4F74
:1020A000908180E0692F41E00E94E80A88898F5F73
:1020B000888B8889823008F421CF89898B8B8B8922
:1020C00063960FB6F894DEBF0FBECDBFCF91DF9100
:1020D0000895DF93CF93CDB7DEB72F970FB6F8945F
:1020E000DEBF0FBECDBF8F8782E061E040E00E947F
:1020F000E80A82E060E040E00E94E80A83E06F8541
:102100000E94FA0B82E062E041E00E94E80A80E06F
:1021100090E0A0E0B0E48B879C87AD87BE876B859D
:102120007C858D859E8520E030E04AE755E40E945D
:102130001F02DC01CB018F839887A987BA876F8143
:10214000788589859A8520E030E040E85FE30E9449
:10215000250488232CF481E090E09E838D833FC08A
:102160006F81788589859A8520E03FEF4FE757E4B6
:102170000E94C50318164CF56B857C858D859E8560
:1021800020E030E040E251E40E941F02DC01CB017C
:10219000BC01CD010E944900DC01CB019E838D83EF
:1021A0000FC080E991E09C838B838B819C81019798
:1021B000F1F79C838B838D819E8101979E838D8314
:1021C0008D819E81009769F714C06F81788589851C
:1021D0009A850E944900DC01CB019E838D838D810D
:1021E0009E819A83898389819A810197F1F79A83E5
:1021F000898382E062E040E00E94E80A2F960FB6F1
:10220000F894DEBF0FBECDBFCF91DF910895DF936D
:10221000CF93CDB7DEB72F970FB6F894DEBF0FBEC2
:10222000CDBF8F8782E061E040E00E94E80A82E053
:1022300060E041E00E94E80A83E06F850E94FA0BAB
:1022400082E062E041E00E94E80A80E090E0A0E0E5
:10225000B0E48B879C87AD87BE876B857C858D8539
:102260009E8520E030E04AE755E40E941F02DC0131
:10227000CB018F839887A987BA876F8178858985F5
:102280009A8520E030E040E85FE30E94250488233F
:102290002CF481E090E09E838D833FC06F81788530
:1022A00089859A8520E03FEF4FE757E40E94C503F8
:1022B00018164CF56B857C858D859E8520E030E079
:1022C00040E251E40E941F02DC01CB01BC01CD01C0
:1022D0000E944900DC01CB019E838D830FC080E901
:1022E00091E09C838B838B819C810197F1F79C8388
:1022F0008B838D819E8101979E838D838D819E81AD
:10230000009769F714C06F81788589859A850E9446
:102310004900DC01CB019E838D838D819E819A8350
:10232000898389819A810197F1F79A83898382E071
:1023300062E040E00E94E80A2F960FB6F894DEBFF4
:102340000FBECDBFCF91DF910895DF93CF93CDB76F
:10235000DEB72E970FB6F894DEBF0FBECDBF83E079
:102360006FEF0E94A00A82E06FEF0E94A00A80E057
:1023700090E0A0E2B2E48B879C87AD87BE876B8537
:102380007C858D859E8520E030E04AE755E40E94FB
:102390001F02DC01CB018F839887A987BA876F81E1
:1023A000788589859A8520E030E040E85FE30E94E7
:1023B000250488232CF481E090E09E838D833FC028
:1023C0006F81788589859A8520E03FEF4FE757E454
:1023D0000E94C50318164CF56B857C858D859E85FE
:1023E00020E030E040E251E40E941F02DC01CB011A
:1023F000BC01CD010E944900DC01CB019E838D838D
:102400000FC080E991E09C838B838B819C81019735
:10241000F1F79C838B838D819E8101979E838D83B1
:102420008D819E81009769F714C06F8178858985B9
:102430009A850E944900DC01CB019E838D838D81AA
:102440009E819A83898389819A810197F1F79A8382
:10245000898388E30E9469108CE00E94691081E002
:102460000E94691086E00E9469102E960FB6F894BB
:10247000DEBF0FBECDBFCF91DF910895DF93CF9325
:1024800000D00F92CDB7DEB79B838A8319820FC02D
:102490008981282F30E08A819B81FC01E20FF31FA4
:1024A000908189818F5F8983892F0E94071189819B
:1024B000282F30E08A819B81FC01E20FF31F80818D
:1024C000882331F70F900F900F90CF91DF910895EF
:1024D000DF93CF9300D00F92CDB7DEB78A836B83A3
:1024E00019828A81882319F48B81898306C08A81A5
:1024F000813019F48B81805C8983898180580E94A6
:1025000069100F900F900F90CF91DF910895DF9396
:10251000CF93CDB7DEB727970FB6F894DEBF0FBEC7
:10252000CDBF9C838B836D834E832F831A828D81D5
:10253000882F90E0880F991F880F991F880F991F87
:102540008A838A81805C0E94691019820EC0898109
:10255000282F30E08B819C81FC01E20FF31F8081EA
:102560000E94071189818F5F89838981883078F380
:102570008E816F810E9468128D810E9407112796BB
:102580000FB6F894DEBF0FBECDBFCF91DF91089597
:102590000F931F93DF93CF93CDB7DEB761970FB63D
:1025A000F894DEBF0FBECDBF6E877F87888B998B77
:1025B0001A828E859F85A889B9890097A105B105E2
:1025C00091F580E30E9407114DC08A81082F10E029
:1025D0008E859F85A889B9892AE030E040E050E0E7
:1025E000BC01CD010E94E82DDC01CB01282F205D2C
:1025F000CE010396FC01E00FF11F20838A818F5FDB
:102600008A838E859F85A889B9892AE030E040E0D9
:1026100050E0BC01CD010E94E82DDA01C9018E878E
:102620009F87A88BB98B8E859F85A889B9890097CC
:10263000A105B10551F68A81898311C08981882F4E
:1026400090E09C0121503040CE010396FC01E20F46
:10265000F31F80810E9407118981815089838981BC
:10266000882361F761960FB6F894DEBF0FBECDBF29
:10267000CF91DF911F910F910895DF93CF93CDB745
:10268000DEB780E060E00E94681280E690E00E9481
:102690003E1281E060E00E94681280E690E00E94B5
:1026A0003E1280E060E00E946812CF91DF910895B1
:1026B000DF93CF93CDB7DEB70E941707CF91DF919D
:1026C0000895DF93CF93CDB7DEB728970FB6F89470
:1026D000DEBF0FBECDBF98878F8380E090E0A0E083
:1026E000B0E08B839C83AD83BE831A8219828F8175
:1026F0009885CC01A0E0B0E0BC01CD010E94A90406
:10270000DC01CB01BC01CD0120E030E04FE753E418
:102710000E941903DC01CB01BC01CD0120E030E0B7
:1027200040EA50E40E941F02DC01CB018B839C83B2
:10273000AD83BE836B817C818D819E8120E030E002
:1027400040E050E00E94C5031816A4F56B817C811F
:102750008D819E8120E030E040EA50E40E94250413
:10276000882344F560E070E080EA90E42B813C81AE
:102770004D815E810E94C101DC01CB01BC01CD0114
:1027800020E030E045EA53E40E941F02DC01CB0167
:10279000BC01CD012B813C814D815E810E941903DA
:1027A000DC01CB01BC01CD010E944900DC01CB0161
:1027B0009A83898389819A8128960FB6F894DEBF1F
:1027C0000FBECDBFCF91DF910895DF93CF93CDB7EB
:1027D000DEB728970FB6F894DEBF0FBECDBF98873F
:1027E0008F8380E090E0A0E0B0E08B839C83AD839A
:1027F000BE831A8219828F819885CC01A0E0B0E057
:10280000BC01CD010E94A904DC01CB01BC01CD01BA
:1028100020E030EC4FE754E40E941903DC01CB01C7
:10282000BC01CD0120E030E040EA50E40E941F02EC
:10283000DC01CB018B839C83AD83BE836B817C8168
:102840008D819E8120E030E040E050E00E94C50391
:102850001816A4F56B817C818D819E8120E030E08B
:1028600040EA50E40E942504882344F560E070E0CB
:1028700080EA90E42B813C814D815E810E94C10100
:10288000DC01CB01BC01CD0120E030E045EA53E49E
:102890000E941F02DC01CB01BC01CD012B813C81D8
:1028A0004D815E810E941903DC01CB01BC01CD0189
:1028B0000E944900DC01CB019A83898389819A8136
:1028C00028960FB6F894DEBF0FBECDBFCF91DF9133
:1028D0000895DF93CF9300D00F92CDB7DEB7698311
:1028E0007A838B8389819A81692F41E00E948E09C6
:1028F0000F900F900F90CF91DF910895DF93CF93BA
:1029000000D00F92CDB7DEB769837A838B838B813A
:10291000813039F489819A81692F41E00E94E80A67
:1029200009C08B81882331F489819A81692F40E025
:102930000E94E80A0F900F900F90CF91DF910895B9
:10294000DF93CF9300D00F92CDB7DEB769837A8340
:102950008B838B81813039F489819A81692F40E0A2
:102960000E94E80A09C08B81882331F489819A8109
:10297000692F41E00E94E80A0F900F900F90CF91CD
:10298000DF910895AF92BF92CF92DF92EF92FF92C4
:102990000F931F93DF93CF93CDB7DEB727970FB673
:1029A000F894DEBF0FBECDBF9B838A837D836C838B
:1029B0005F834E8319828A819B81009709F4BCC092
:1029C000EA81FB818181883009F055C0EA81FB8171
:1029D0008081A82EBB24CC24DD248C819D81CC0158
:1029E000A0E0B0E000D000D0EDB7FEB73196808314
:1029F0009183A283B38360E070E080E090E025E003
:102A000030E040E050E0EE24FF2487010E945C2D7E
:102A10000F900F900F900F90DC01CB019D838C8362
:102A20008C819D81CC01A0E0B0E0EA81FB81208116
:102A3000222F30E040E050E0BC01CD010E94C92DC2
:102A4000DC01CB0124E630E040E050E0BC01CD01E8
:102A50000E94C92DDC01CB012FEF30E040E050E0B7
:102A6000BC01CD010E94E82DDA01C901EE81FF8190
:102A70009183808363C0EA81FB8181818A3009F080
:102A800058C08C819D81CC01A0E0B0E000D000D086
:102A9000EDB7FEB7319680839183A283B38360E064
:102AA00070E080E090E02FEF33E040E050E0EE2473
:102AB000FF2487010F2EFFEFAF2EF0E0BF2EF0E0D6
:102AC000CF2EF0E0DF2EF02D0E945C2D0F900F90A6
:102AD0000F900F90DC01CB019D838C838C819D81B5
:102AE000CC01A0E0B0E0EA81FB812081222F30E020
:102AF00040E050E0BC01CD010E94C92DDC01CB01BA
:102B000024E630E040E050E0BC01CD010E94C92D38
:102B1000DC01CB012FEF33E040E050E0BC01CD0100
:102B20000E94E82DDA01C901EE81FF819183808343
:102B300005C081E0898302C082E08983898127966C
:102B40000FB6F894DEBF0FBECDBFCF91DF911F91BE
:102B50000F91FF90EF90DF90CF90BF90AF900895CE
:102B6000DF93CF93CDB7DEB7EAE3F0E083E880836D
:102B7000E7E3F0E08BEF8083E4E3F0E08FE780832E
:102B8000E1E3F0E08FEF8083EBE3F0E08FE0808320
:102B9000E8E3F0E01082E5E3F0E01082E2E3F0E049
:102BA0001082CF91DF910895DF93CF93CDB7DEB739
:102BB00082E066E04FEF0E948E0982E065E04FEF11
:102BC0000E948E0982E063E04FEF0E948E0982E04E
:102BD00064E04FEF0E948E0982E063E040E00E94D3
:102BE000E80A82E064E040E00E94E80A82E065E0F2
:102BF00040E00E94E80A82E066E040E00E94E80AC5
:102C0000CF91DF9108950F931F93DF93CF93CDB7AB
:102C1000DEB7C255D1400FB6F894DEBF0FBECDBFB0
:102C2000FE01EF5AFE4F8083FE01EE5AFE4F608395
:102C3000FE01EF5AFE4F8081813009F04FC6FE0140
:102C4000EE5AFE4F8081813009F020C382E063E0BC
:102C500040E00E94E80A82E064E041E00E94E80A65
:102C600082E065E041E00E94E80A82E066E041E03F
:102C70000E94E80AFE01E35BFE4F80E090E0A8E4DA
:102C8000B2E480839183A283B3838E01075B1E4FDE
:102C9000FE01E35BFE4F608171818281938120E0C0
:102CA00030E04AE755E40E941F02DC01CB01F80145
:102CB00080839183A283B383FE01E75BFE4F608133
:102CC00071818281938120E030E040E85FE30E94DF
:102CD0002504882344F4FE01E95BFE4F81E090E087
:102CE0009183808364C0FE01E75BFE4F6081718148
:102CF0008281938120E03FEF4FE757E40E94C503B4
:102D000018160CF043C0FE01E35BFE4F6081718139
:102D10008281938120E030E040E251E40E941F0272
:102D2000DC01CB018E01095B1E4FBC01CD010E946D
:102D30004900DC01CB01F801918380831FC0FE01B3
:102D4000EB5BFE4F80E991E091838083FE01EB5BBA
:102D5000FE4F808191810197F1F7FE01EB5BFE4F01
:102D600091838083DE01A95BBE4FFE01E95BFE4FCC
:102D700080819181019711969C938E93FE01E95B6E
:102D8000FE4F808191810097D1F627C08E01095BAB
:102D90001E4FFE01E75BFE4F60817181828193814E
:102DA0000E944900DC01CB01F80191838083DE01A0
:102DB000AD5BBE4FFE01E95BFE4F808191818D933B
:102DC0009C93FE01ED5BFE4F808191810197F1F7AD
:102DD000FE01ED5BFE4F9183808382E063E041E082
:102DE0000E94E80A82E064E040E00E94E80A82E093
:102DF00065E041E00E94E80A82E066E041E00E946E
:102E0000E80AFE01E15CFE4F80E090E0A8E4B2E455
:102E100080839183A283B3838E01055C1E4FFE01E4
:102E2000E15CFE4F608171818281938120E030E01E
:102E30004AE755E40E941F02DC01CB01F8018083C0
:102E40009183A283B383FE01E55CFE4F60817181B3
:102E50008281938120E030E040E85FE30E94250416
:102E6000882344F4FE01E75CFE4F81E090E091830B
:102E7000808364C0FE01E55CFE4F608171818281C8
:102E8000938120E03FEF4FE757E40E94C5031816F7
:102E90000CF043C0FE01E15CFE4F608171818281D4
:102EA000938120E030E040E251E40E941F02DC0107
:102EB000CB018E01075C1E4FBC01CD010E94490071
:102EC000DC01CB01F801918380831FC0FE01E95C26
:102ED000FE4F80E991E091838083FE01E95CFE4F23
:102EE000808191810197F1F7FE01E95CFE4F9183AA
:102EF0008083DE01A75CBE4FFE01E75CFE4F808150
:102F00009181019711969C938E93FE01E75CFE4F91
:102F1000808191810097D1F627C08E01075C1E4FFA
:102F2000FE01E55CFE4F60817181828193810E9488
:102F30004900DC01CB01F80191838083DE01AB5CA9
:102F4000BE4FFE01E75CFE4F808191818D939C9383
:102F5000FE01EB5CFE4F808191810197F1F7FE014C
:102F6000EB5CFE4F9183808382E063E041E00E944E
:102F7000E80A82E064E041E00E94E80A82E065E05D
:102F800040E00E94E80A82E066E041E00E94E80A30
:102F9000FE01EF5CFE4F80E090E0A8E4B2E48083A5
:102FA0009183A283B3838E01035D1E4FFE01EF5C0C
:102FB000FE4F608171818281938120E030E04AE799
:102FC00055E40E941F02DC01CB01F801808391834C
:102FD000A283B383FE01E35DFE4F60817181828134
:102FE000938120E030E040E85FE30E9425048823DD
:102FF00044F4FE01E55DFE4F81E090E09183808323
:1030000064C0FE01E35DFE4F608171818281938126
:1030100020E03FEF4FE757E40E94C50318160CF07D
:1030200043C0FE01EF5CFE4F60817181828193811C
:1030300020E030E040E251E40E941F02DC01CB01BD
:103040008E01055D1E4FBC01CD010E944900DC01CF
:10305000CB01F801918380831FC0FE01E75DFE4F25
:1030600080E991E091838083FE01E75DFE4F8081DE
:1030700091810197F1F7FE01E75DFE4F9183808317
:10308000DE01A55DBE4FFE01E55DFE4F80819181B1
:10309000019711969C938E93FE01E55DFE4F808112
:1030A00091810097D1F627C08E01055D1E4FFE016C
:1030B000E35DFE4F60817181828193810E944900AE
:1030C000DC01CB01F80191838083DE01A95DBE4F55
:1030D000FE01E55DFE4F808191818D939C93FE0101
:1030E000E95DFE4F808191810197F1F7FE01E95D75
:1030F000FE4F9183808382E063E041E00E94E80A12
:1031000082E064E041E00E94E80A82E065E041E09C
:103110000E94E80A82E066E040E00E94E80AFE01C0
:10312000ED5DFE4F80E090E0A8E4B2E480839183FF
:10313000A283B3838E01015E1E4FFE01ED5DFE4F43
:10314000608171818281938120E030E04AE755E41B
:103150000E941F02DC01CB01F80180839183A283CE
:10316000B383FE01E15EFE4F6081718182819381B4
:1031700020E030E040E85FE30E942504882344F427
:10318000FE01E35EFE4F81E090E09183808365C0A5
:10319000FE01E15EFE4F608171818281938120E0BA
:1031A0003FEF4FE757E40E94C50318160CF044C0E8
:1031B000FE01ED5DFE4F608171818281938120E08F
:1031C00030E040E251E40E941F02DC01CB018E019D
:1031D000035E1E4FBC01CD010E944900DC01CB0102
:1031E000F801918380831FC0FE01E55EFE4F80E9F8
:1031F00091E091838083FE01E55EFE4F80819181A5
:103200000197F1F7FE01E55EFE4F91838083DE01B9
:10321000A35EBE4FFE01E35EFE4F80819181019768
:1032200011969C938E93FE01E35EFE4F8081918107
:103230000097D1F60C94C4278E01035E1E4FFE0149
:10324000E15EFE4F60817181828193810E9449001D
:10325000DC01CB01F80191838083DE01A75EBE4FC4
:10326000FE01E35EFE4F8081918111969C938E93C7
:10327000FE01E75EFE4F808191810197F1F7FE012B
:10328000E75EFE4F918380830C94C427FE01EE5AC3
:10329000FE4F8081882311F00C94C42782E063E004
:1032A00041E00E94E80A82E064E041E00E94E80A0E
:1032B00082E065E041E00E94E80A82E066E040E0EA
:1032C0000E94E80AFE01EB5EFE4F80E090E0A8E479
:1032D000B2E480839183A283B3838E010F5E1E4F7D
:1032E000FE01EB5EFE4F608171818281938120E05F
:1032F00030E04AE755E40E941F02DC01CB01F801EF
:1033000080839183A283B383FE01EF5EFE4F6081D1
:1033100071818281938120E030E040E85FE30E9488
:103320002504882344F4FE01E15FFE4F81E090E034
:103330009183808364C0FE01EF5EFE4F60817181E6
:103340008281938120E03FEF4FE757E40E94C5035D
:1033500018160CF043C0FE01EB5EFE4F60817181D8
:103360008281938120E030E040E251E40E941F021C
:10337000DC01CB018E01015F1E4FBC01CD010E941B
:103380004900DC01CB01F801918380831FC0FE015D
:10339000E35FFE4F80E991E091838083FE01E35F6C
:1033A000FE4F808191810197F1F7FE01E35FFE4FAF
:1033B00091838083DE01A15FBE4FFE01E15FFE4F7E
:1033C00080819181019711969C938E93FE01E15F1C
:1033D000FE4F808191810097D1F627C08E01015F59
:1033E0001E4FFE01EF5EFE4F6081718182819381ED
:1033F0000E944900DC01CB01F80191838083DE014A
:10340000A55FBE4FFE01E15FFE4F808191818D93EC
:103410009C93FE01E55FFE4F808191810197F1F75A
:10342000FE01E55FFE4F9183808382E063E041E02F
:103430000E94E80A82E064E041E00E94E80A82E03B
:1034400065E040E00E94E80A82E066E041E00E9418
:10345000E80AFE01E95FFE4F80E090E0A8E4B2E4F4
:1034600080839183A283B3838E010D5F1E4FFE0183
:10347000E95FFE4F608171818281938120E030E0BD
:103480004AE755E40E941F02DC01CB01F80180836A
:103490009183A283B383FE01ED5FFE4F6081718152
:1034A0008281938120E030E040E85FE30E942504C0
:1034B000882344F4FE01EF5FFE4F81E090E09183AA
:1034C000808364C0FE01ED5FFE4F60817181828167
:1034D000938120E03FEF4FE757E40E94C5031816A1
:1034E0000CF043C0FE01E95FFE4F60817181828173
:1034F000938120E030E040E251E40E941F02DC01B1
:10350000CB018E010F5F1E4FBC01CD010E9449000F
:10351000DC01CB01F801918380831FC0FE01E150E3
:10352000FF4F80E991E091838083FE01E150FF4FDE
:10353000808191810197F1F7FE01E150FF4F918366
:103540008083DE01AF5FBE4FFE01EF5FFE4F8081E3
:103550009181019711969C938E93FE01EF5FFE4F30
:10356000808191810097D1F627C08E010F5F1E4F99
:10357000FE01ED5FFE4F60817181828193810E9427
:103580004900DC01CB01F80191838083DE01A35067
:10359000BF4FFE01EF5FFE4F808191818D939C9321
:1035A000FE01E350FF4F808191810197F1F7FE0109
:1035B000E350FF4F9183808382E063E041E00E940B
:1035C000E80A82E064E040E00E94E80A82E065E008
:1035D00041E00E94E80A82E066E041E00E94E80AD9
:1035E000FE01E750FF4F80E090E0A8E4B2E4808362
:1035F0009183A283B3838E010B501F4FFE01E750CE
:10360000FF4F608171818281938120E030E04AE741
:1036100055E40E941F02DC01CB01F80180839183F5
:10362000A283B383FE01EB50FF4F608171818281E1
:10363000938120E030E040E85FE30E942504882386
:1036400044F4FE01ED50FF4F81E090E091838083D0
:1036500064C0FE01EB50FF4F6081718182819381D4
:1036600020E03FEF4FE757E40E94C50318160CF027
:1036700043C0FE01E750FF4F6081718182819381D9
:1036800020E030E040E251E40E941F02DC01CB0167
:103690008E010D501F4FBC01CD010E944900DC017D
:1036A000CB01F801918380831FC0FE01EF50FF4FD3
:1036B00080E991E091838083FE01EF50FF4F80818C
:1036C00091810197F1F7FE01EF50FF4F91838083C5
:1036D000DE01AD50BF4FFE01ED50FF4F8081918163
:1036E000019711969C938E93FE01ED50FF4F8081C0
:1036F00091810097D1F627C08E010D501F4FFE011A
:10370000EB50FF4F60817181828193810E9449005B
:10371000DC01CB01F80191838083DE01A151BF4F11
:10372000FE01ED50FF4F808191818D939C93FE01AE
:10373000E151FF4F808191810197F1F7FE01E15145
:10374000FF4F9183808382E063E040E00E94E80ABB
:1037500082E064E041E00E94E80A82E065E041E046
:103760000E94E80A82E066E041E00E94E80AFE0169
:10377000E551FF4F80E090E0A8E4B2E480839183BC
:10378000A283B3838E0109511F4FFE01E551FF4F04
:10379000608171818281938120E030E04AE755E4C5
:1037A0000E941F02DC01CB01F80180839183A28378
:1037B000B383FE01E951FF4F608171818281938162
:1037C00020E030E040E85FE30E942504882344F4D1
:1037D000FE01EB51FF4F81E090E09183808365C053
:1037E000FE01E951FF4F608171818281938120E068
:1037F0003FEF4FE757E40E94C50318160CF044C092
:10380000FE01E551FF4F608171818281938120E04B
:1038100030E040E251E40E941F02DC01CB018E0146
:103820000B511F4FBC01CD010E944900DC01CB01AF
:10383000F801918380831FC0FE01ED51FF4F80E9A5
:1038400091E091838083FE01ED51FF4F8081918152
:103850000197F1F7FE01ED51FF4F91838083DE0167
:10386000AB51BF4FFE01EB51FF4F8081918101971A
:1038700011969C938E93FE01EB51FF4F80819181B5
:103880000097D1F60C94C4278E010B511F4FFE01F7
:10389000E951FF4F60817181828193810E944900CB
:1038A000DC01CB01F80191838083DE01AF51BF4F72
:1038B000FE01EB51FF4F8081918111969C938E9375
:1038C000FE01EF51FF4F808191810197F1F7FE01D9
:1038D000EF51FF4F918380830C94C427FE01EF5A70
:1038E000FE4F8081882311F00C94C427FE01EE5A0C
:1038F000FE4F8081813009F03AC682E063E040E00B
:103900000E94E80A82E064E041E00E94E80A82E066
:1039100065E041E00E94E80A82E066E041E00E9442
:10392000E80AFE01E352FF4F80E090E0A8E4B2E431
:1039300080839183A283B3838E0107521F4FFE01C0
:10394000E352FF4F608171818281938120E030E0FA
:103950004AE755E40E941F02DC01CB01F801808395
:103960009183A283B383FE01E752FF4F608171818F
:103970008281938120E030E040E85FE30E942504EB
:10398000882344F4FE01E952FF4F81E090E09183E7
:10399000808364C0FE01E752FF4F608171818281A4
:1039A000938120E03FEF4FE757E40E94C5031816CC
:1039B0000CF043C0FE01E352FF4F608171818281B0
:1039C000938120E030E040E251E40E941F02DC01DC
:1039D000CB018E0109521F4FBC01CD010E9449004D
:1039E000DC01CB01F801918380831FC0FE01EB5203
:1039F000FF4F80E991E091838083FE01EB52FF4FFE
:103A0000808191810197F1F7FE01EB52FF4F918385
:103A10008083DE01A952BF4FFE01E952FF4F808132
:103A20009181019711969C938E93FE01E952FF4F6D
:103A3000808191810097D1F627C08E0109521F4FD6
:103A4000FE01E752FF4F60817181828193810E9464
:103A50004900DC01CB01F80191838083DE01AD5286
:103A6000BF4FFE01E952FF4F808191818D939C935E
:103A7000FE01ED52FF4F808191810197F1F7FE0128
:103A8000ED52FF4F9183808382E063E040E00E942B
:103A9000E80A82E064E040E00E94E80A82E065E033
:103AA00041E00E94E80A82E066E041E00E94E80A04
:103AB000FE01E153FF4F80E090E0A8E4B2E4808390
:103AC0009183A283B3838E0105531F4FFE01E153FF
:103AD000FF4F608171818281938120E030E04AE76D
:103AE00055E40E941F02DC01CB01F8018083918321
:103AF000A283B383FE01E553FF4F60817181828110
:103B0000938120E030E040E85FE30E9425048823B1
:103B100044F4FE01E753FF4F81E090E091838083FE
:103B200064C0FE01E553FF4F608171818281938102
:103B300020E03FEF4FE757E40E94C50318160CF052
:103B400043C0FE01E153FF4F608171818281938107
:103B500020E030E040E251E40E941F02DC01CB0192
:103B60008E0107531F4FBC01CD010E944900DC01AB
:103B7000CB01F801918380831FC0FE01E953FF4F01
:103B800080E991E091838083FE01E953FF4F8081BA
:103B900091810197F1F7FE01E953FF4F91838083F3
:103BA000DE01A753BF4FFE01E753FF4F8081918194
:103BB000019711969C938E93FE01E753FF4F8081EE
:103BC00091810097D1F627C08E0107531F4FFE0148
:103BD000E553FF4F60817181828193810E9449008A
:103BE000DC01CB01F80191838083DE01AB53BF4F31
:103BF000FE01E753FF4F808191818D939C93FE01DD
:103C0000EB53FF4F808191810197F1F7FE01EB5358
:103C1000FF4F9183808382E063E041E00E94E80AE5
:103C200082E064E040E00E94E80A82E065E041E072
:103C30000E94E80A82E066E041E00E94E80AFE0194
:103C4000EF53FF4F80E090E0A8E4B2E480839183DB
:103C5000A283B3838E0103541F4FFE01EF53FF4F26
:103C6000608171818281938120E030E04AE755E4F0
:103C70000E941F02DC01CB01F80180839183A283A3
:103C8000B383FE01E354FF4F608171818281938190
:103C900020E030E040E85FE30E942504882344F4FC
:103CA000FE01E554FF4F81E090E09183808364C082
:103CB000FE01E354FF4F608171818281938120E096
:103CC0003FEF4FE757E40E94C50318160CF043C0BE
:103CD000FE01EF53FF4F608171818281938120E06B
:103CE00030E040E251E40E941F02DC01CB018E0172
:103CF00005541F4FBC01CD010E944900DC01CB01DE
:103D0000F801918380831FC0FE01E754FF4F80E9D3
:103D100091E091838083FE01E754FF4F8081918180
:103D20000197F1F7FE01E754FF4F91838083DE0195
:103D3000A554BF4FFE01E554FF4F8081918101974B
:103D400011969C938E93FE01E554FF4F80819181E3
:103D50000097D1F627C08E0105541F4FFE01E35492
:103D6000FF4F60817181828193810E944900DC0153
:103D7000CB01F80191838083DE01A954BF4FFE017E
:103D8000E554FF4F808191818D939C93FE01E9540E
:103D9000FF4F808191810197F1F7FE01E954FF4FB8
:103DA0009183808382E063E041E00E94E80A82E040
:103DB00064E040E00E94E80A82E065E040E00E94A2
:103DC000E80A82E066E041E00E94E80AFE01ED5464
:103DD000FF4F80E090E0A8E4B2E480839183A28367
:103DE000B3838E0101551F4FFE01ED54FF4F6081DB
:103DF00071818281938120E030E04AE755E40E949E
:103E00001F02DC01CB01F80180839183A283B3837D
:103E1000FE01E155FF4F608171818281938120E035
:103E200030E040E85FE30E942504882344F4FE016B
:103E3000E355FF4F81E090E09183808364C0FE01F1
:103E4000E155FF4F608171818281938120E03FEFD6
:103E50004FE757E40E94C50318160CF043C0FE015B
:103E6000ED54FF4F608171818281938120E030E0C9
:103E700040E251E40E941F02DC01CB018E01035598
:103E80001F4FBC01CD010E944900DC01CB01F801AC
:103E9000918380831FC0FE01E555FF4F80E991E0CB
:103EA00091838083FE01E555FF4F808191810197C9
:103EB000F1F7FE01E555FF4F91838083DE01A355A5
:103EC000BF4FFE01E355FF4F80819181019711960D
:103ED0009C938E93FE01E355FF4F80819181009763
:103EE000D1F627C08E0103551F4FFE01E155FF4F4C
:103EF00060817181828193810E944900DC01CB0144
:103F0000F80191838083DE01A755BF4FFE01E35581
:103F1000FF4F808191818D939C93FE01E755FF4F68
:103F2000808191810197F1F7FE01E755FF4F918361
:103F3000808382E063E041E00E94E80A82E064E07E
:103F400041E00E94E80A82E065E040E00E94E80A61
:103F500082E066E041E00E94E80AFE01EB55FF4F77
:103F600080E090E0A8E4B2E480839183A283B383ED
:103F70008E010F551F4FFE01EB55FF4F6081718180
:103F80008281938120E030E04AE755E40E941F02DD
:103F9000DC01CB01F80180839183A283B383FE010E
:103FA000EF55FF4F608171818281938120E030E085
:103FB00040E85FE30E942504882344F4FE01E156B3
:103FC000FF4F81E090E09183808364C0FE01EF5554
:103FD000FF4F608171818281938120E03FEF4FE745
:103FE00057E40E94C50318160CF043C0FE01EB55C0
:103FF000FF4F608171818281938120E030E040E257
:1040000051E40E941F02DC01CB018E0101561F4FBB
:10401000BC01CD010E944900DC01CB01F801918374
:1040200080831FC0FE01E356FF4F80E991E091833A
:104030008083FE01E356FF4F808191810197F1F764
:10404000FE01E356FF4F91838083DE01A156BF4FEF
:10405000FE01E156FF4F80819181019711969C935B
:104060008E93FE01E156FF4F808191810097D1F63A
:1040700027C08E0101561F4FFE01EF55FF4F608193
:104080007181828193810E944900DC01CB01F8019A
:1040900091838083DE01A556BF4FFE01E156FF4F9D
:1040A000808191818D939C93FE01E556FF4F808125
:1040B00091810197F1F7FE01E556FF4F91838083CF
:1040C00082E063E041E00E94E80A82E064E041E0CF
:1040D0000E94E80A82E065E040E00E94E80A82E08F
:1040E00066E040E00E94E80AFE01E956FF4F80E0EA
:1040F00090E0A8E4B2E480839183A283B3838E012D
:104100000D561F4FFE01E956FF4F6081718182817C
:10411000938120E030E04AE755E40E941F02DC0171
:10412000CB01F80180839183A283B383FE01ED5616
:10413000FF4F608171818281938120E030E040E80F
:104140005FE30E942504882344F4FE01EF56FF4FED
:1041500081E090E09183808364C0FE01ED56FF4FC3
:10416000608171818281938120E03FEF4FE757E4C6
:104170000E94C50318160CF043C0FE01E956FF4F1C
:10418000608171818281938120E030E040E251E4DE
:104190000E941F02DC01CB018E010F561F4FBC0194
:1041A000CD010E944900DC01CB01F801918380839D
:1041B0001FC0FE01E157FF4F80E991E091838083AA
:1041C000FE01E157FF4F808191810197F1F7FE01D8
:1041D000E157FF4F91838083DE01AF56BF4FFE0151
:1041E000EF56FF4F80819181019711969C938E939A
:1041F000FE01EF56FF4F808191810097D1F627C0D5
:104200008E010F561F4FFE01ED56FF4F60817181E9
:10421000828193810E944900DC01CB01F8019183E6
:104220008083DE01A357BF4FFE01EF56FF4F808111
:1042300091818D939C93FE01E357FF4F8081918183
:104240000197F1F7FE01E357FF4F9183808382E0EE
:1042500063E041E00E94E80A82E064E041E00E94FD
:10426000E80A82E065E041E00E94E80A82E066E058
:1042700040E00E94E80AFE01E757FF4F80E090E02F
:10428000A8E4B2E480839183A283B3838E010B57A9
:104290001F4FFE01E757FF4F60817181828193813B
:1042A00020E030E04AE755E40E941F02DC01CB0128
:1042B000F80180839183A283B383FE01EB57FF4F04
:1042C000608171818281938120E030E040E85FE38A
:1042D0000E942504882344F4FE01ED57FF4F81E03E
:1042E00090E09183808364C0FE01EB57FF4F6081B3
:1042F00071818281938120E03FEF4FE757E40E9474
:10430000C50318160CF043C0FE01E757FF4F60814C
:1043100071818281938120E030E040E251E40E948B
:104320001F02DC01CB018E010D571F4FBC01CD01D7
:104330000E944900DC01CB01F801918380831FC0FA
:10434000FE01EF57FF4F80E991E091838083FE01EA
:10435000EF57FF4F808191810197F1F7FE01EF57F1
:10436000FF4F91838083DE01AD57BF4FFE01ED57B4
:10437000FF4F80819181019711969C938E93FE014E
:10438000ED57FF4F808191810097D1F627C08E01B4
:104390000D571F4FFE01EB57FF4F608171818281E6
:1043A00093810E944900DC01CB01F8019183808355
:1043B000DE01A158BF4FFE01ED57FF4F8081918173
:1043C0008D939C93FE01E158FF4F8081918101976D
:1043D000F1F7FE01E158FF4F9183808382E063E0B3
:1043E00040E00E94E80A82E064E041E00E94E80ABE
:1043F00082E065E041E00E94E80A82E066E040E099
:104400000E94E80AFE01E558FF4F80E090E0A8E432
:10441000B2E480839183A283B3838E0109581F4F36
:10442000FE01E558FF4F608171818281938120E018
:1044300030E04AE755E40E941F02DC01CB01F8019D
:1044400080839183A283B383FE01E958FF4F60818B
:1044500071818281938120E030E040E85FE30E9437
:104460002504882344F4FE01EB58FF4F81E090E0DF
:104470009183808364C0FE01E958FF4F60817181A0
:104480008281938120E03FEF4FE757E40E94C5030C
:1044900018160CF043C0FE01E558FF4F6081718192
:1044A0008281938120E030E040E251E40E941F02CB
:1044B000DC01CB018E010B581F4FBC01CD010E94C6
:1044C0004900DC01CB01F801918380831FC0FE010C
:1044D000ED58FF4F80E991E091838083FE01ED5814
:1044E000FF4F808191810197F1F7FE01ED58FF4F59
:1044F00091838083DE01AB58BF4FFE01EB58FF4F25
:1045000080819181019711969C938E93FE01EB58C7
:10451000FF4F808191810097D1F636C58E010B58EF
:104520001F4FFE01E958FF4F6081718182819381A5
:104530000E944900DC01CB01F80191838083DE01F8
:10454000AF58BF4FFE01EB58FF4F8081918111960C
:104550009C938E93FE01EF58FF4F808191810197CC
:10456000F1F7FE01EF58FF4F918380830DC5FE01E7
:10457000EE5AFE4F8081882309F006C582E063E091
:1045800040E00E94E80A82E064E041E00E94E80A1C
:1045900082E065E041E00E94E80A82E066E040E0F7
:1045A0000E94E80AFE01E359FF4F80E090E0A8E492
:1045B000B2E480839183A283B3838E0107591F4F96
:1045C000FE01E359FF4F608171818281938120E078
:1045D00030E04AE755E40E941F02DC01CB01F801FC
:1045E00080839183A283B383FE01E759FF4F6081EB
:1045F00071818281938120E030E040E85FE30E9496
:104600002504882344F4FE01E959FF4F81E090E03E
:104610009183808364C0FE01E759FF4F60817181FF
:104620008281938120E03FEF4FE757E40E94C5036A
:1046300018160CF043C0FE01E359FF4F60817181F1
:104640008281938120E030E040E251E40E941F0229
:10465000DC01CB018E0109591F4FBC01CD010E9425
:104660004900DC01CB01F801918380831FC0FE016A
:10467000EB59FF4F80E991E091838083FE01EB5974
:10468000FF4F808191810197F1F7FE01EB59FF4FB8
:1046900091838083DE01A959BF4FFE01E959FF4F85
:1046A00080819181019711969C938E93FE01E95927
:1046B000FF4F808191810097D1F627C08E01095963
:1046C0001F4FFE01E759FF4F608171818281938105
:1046D0000E944900DC01CB01F80191838083DE0157
:1046E000AD59BF4FFE01E959FF4F808191818D93F4
:1046F0009C93FE01ED59FF4F808191810197F1F765
:10470000FE01ED59FF4F9183808382E063E041E039
:104710000E94E80A82E064E041E00E94E80A82E048
:1047200065E041E00E94E80A82E066E040E00E9425
:10473000E80AFE01E15AFF4F80E090E0A8E4B2E40D
:1047400080839183A283B3838E01055A1F4FFE019C
:10475000E15AFF4F608171818281938120E030E0D6
:104760004AE755E40E941F02DC01CB01F801808377
:104770009183A283B383FE01E55AFF4F608171816B
:104780008281938120E030E040E85FE30E942504CD
:10479000882344F4FE01E75AFF4F81E090E09183C3
:1047A000808364C0FE01E55AFF4F60817181828180
:1047B000938120E03FEF4FE757E40E94C5031816AE
:1047C0000CF043C0FE01E15AFF4F6081718182818C
:1047D000938120E030E040E251E40E941F02DC01BE
:1047E000CB018E01075A1F4FBC01CD010E94490029
:1047F000DC01CB01F801918380831FC0FE01E95ADF
:10480000FF4F80E991E091838083FE01E95AFF4FD9
:10481000808191810197F1F7FE01E95AFF4F918361
:104820008083DE01A75ABF4FFE01E75AFF4F808108
:104830009181019711969C938E93FE01E75AFF4F49
:10484000808191810097D1F627C08E01075A1F4FB2
:10485000FE01E55AFF4F60817181828193810E9440
:104860004900DC01CB01F80191838083DE01AB5A62
:10487000BF4FFE01E75AFF4F808191818D939C933A
:10488000FE01EB5AFF4F808191810197F1F7FE0104
:10489000EB5AFF4F9183808382E063E041E00E9406
:1048A000E80A82E064E041E00E94E80A82E065E014
:1048B00040E00E94E80A82E066E040E00E94E80AE8
:1048C000FE01EF5AFF4F80E090E0A8E4B2E480835D
:1048D0009183A283B3838E01035B1F4FFE01EF5AC6
:1048E000FF4F608171818281938120E030E04AE74F
:1048F00055E40E941F02DC01CB01F8018083918303
:10490000A283B383FE01E35BFF4F608171818281EB
:10491000938120E030E040E85FE30E942504882393
:1049200044F4FE01E55BFF4F81E090E091838083DA
:1049300064C0FE01E35BFF4F6081718182819381DE
:1049400020E03FEF4FE757E40E94C50318160CF034
:1049500043C0FE01EF5AFF4F6081718182819381D4
:1049600020E030E040E251E40E941F02DC01CB0174
:104970008E01055B1F4FBC01CD010E944900DC0187
:10498000CB01F801918380831FC0FE01E75BFF4FDD
:1049900080E991E091838083FE01E75BFF4F808196
:1049A00091810197F1F7FE01E75BFF4F91838083CF
:1049B000DE01A55BBF4FFE01E55BFF4F808191816A
:1049C000019711969C938E93FE01E55BFF4F8081CA
:1049D00091810097D1F627C08E01055B1F4FFE0124
:1049E000E35BFF4F60817181828193810E94490066
:1049F000DC01CB01F80191838083DE01A95BBF4F0D
:104A0000FE01E55BFF4F808191818D939C93FE01B8
:104A1000E95BFF4F808191810197F1F7FE01E95B2E
:104A2000FF4F9183808382E063E041E00E94E80AC7
:104A300082E064E041E00E94E80A82E065E040E054
:104A40000E94E80A82E066E041E00E94E80AFE0176
:104A5000ED5BFF4F80E090E0A8E4B2E480839183B7
:104A6000A283B3838E01015C1F4FFE01ED5BFF4FFC
:104A7000608171818281938120E030E04AE755E4D2
:104A80000E941F02DC01CB01F80180839183A28385
:104A9000B383FE01FF96608171818281938120E062
:104AA00030E040E85FE30E94250488232CF481E095
:104AB00090E09EAF8DAF46C0FE01FF966081718190
:104AC0008281938120E03FEF4FE757E40E94C503C6
:104AD000181664F5FE01ED5BFF4F608171818281E4
:104AE000938120E030E040E251E40E941F02DC01AB
:104AF000CB01BC01CD010E944900DC01CB019EAF7E
:104B00008DAF0FC080E991E09CAF8BAF8BAD9CADBA
:104B10000197F1F79CAF8BAF8DAD9EAD01979EAF26
:104B20008DAF8DAD9EAD009769F716C0FE01FF9663
:104B300060817181828193810E944900DC01CB01F7
:104B40009EAF8DAF8DAD9EAD9AAF89AF89AD9AAD59
:104B50000197F1F79AAF89AF82E063E041E00E94EC
:104B6000E80A82E064E040E00E94E80A82E065E052
:104B700040E00E94E80A82E066E041E00E94E80A24
:104B800080E090E0A8E4B2E48DAB9EABAFABB8AFF1
:104B90006DA97EA98FA998AD20E030E04AE755E4E1
:104BA0000E941F02DC01CB0189AB9AABABABBCAB63
:104BB00069A97AA98BA99CA920E030E040E85FE3CD
:104BC0000E94250488232CF481E090E098AB8FA705
:104BD0003FC069A97AA98BA99CA920E03FEF4FE7C4
:104BE00057E40E94C50318164CF56DA97EA98FA93C
:104BF00098AD20E030E040E251E40E941F02DC0169
:104C0000CB01BC01CD010E944900DC01CB0198AB76
:104C10008FA70FC080E991E09EA78DA78DA59EA5C7
:104C20000197F1F79EA78DA78FA598A9019798AB3B
:104C30008FA78FA598A9009769F714C069A97AA9C9
:104C40008BA99CA90E944900DC01CB0198AB8FA7DE
:104C50008FA598A99CA78BA78BA59CA50197F1F779
:104C60009CA78BA782E063E041E00E94E80A82E013
:104C700064E040E00E94E80A82E065E041E00E94D2
:104C8000E80A82E066E041E00E94E80A80E090E005
:104C9000A8E4B2E48FA398A7A9A7BAA76FA178A5A3
:104CA00089A59AA520E030E04AE755E40E941F025A
:104CB000DC01CB018BA39CA3ADA3BEA36BA17CA104
:104CC0008DA19EA120E030E040E85FE30E94250432
:104CD00088232CF481E090E09AA389A33FC06BA1C4
:104CE0007CA18DA19EA120E03FEF4FE757E40E94F9
:104CF000C50318164CF56FA178A589A59AA520E0E3
:104D000030E040E251E40E941F02DC01CB01BC0113
:104D1000CD010E944900DC01CB019AA389A30FC0F9
:104D200080E991E098A38F8F8F8D98A10197F1F77B
:104D300098A38F8F89A19AA101979AA389A389A18A
:104D40009AA1009769F714C06BA17CA18DA19EA1C7
:104D50000E944900DC01CB019AA389A389A19AA1F1
:104D60009E8F8D8F8D8D9E8D0197F1F79E8F8D8FEC
:104D700082E063E040E00E94E80A82E064E040E014
:104D80000E94E80A82E065E041E00E94E80A82E0D1
:104D900066E041E00E94E80A80E090E0A8E4B2E426
:104DA000898F9A8FAB8FBC8F698D7A8D8B8D9C8DFF
:104DB00020E030E04AE755E40E941F02DC01CB010D
:104DC0008D8B9E8BAF8BB88F6D897E898F89988DE7
:104DD00020E030E040E85FE30E94250488232CF4C3
:104DE00081E090E09C8B8B8B3FC06D897E898F89A1
:104DF000988D20E03FEF4FE757E40E94C503181657
:104E00004CF5698D7A8D8B8D9C8D20E030E040E2F1
:104E100051E40E941F02DC01CB01BC01CD010E94C4
:104E20004900DC01CB019C8B8B8B0FC080E991E0AA
:104E30009A8B898B89899A890197F1F79A8B898B4B
:104E40008B899C8901979C8B8B8B8B899C89009784
:104E500069F714C06D897E898F89988D0E944900F9
:104E6000DC01CB019C8B8B8B8B899C89988B8F87EA
:104E70008F8598890197F1F7988B8F8782E063E09F
:104E800040E00E94E80A82E064E041E00E94E80A13
:104E900082E065E041E00E94E80A82E066E041E0ED
:104EA0000E94E80A80E090E0A8E4B2E48B879C8747
:104EB000AD87BE876B857C858D859E8520E030E043
:104EC0004AE755E40E941F02DC01CB018F839887DB
:104ED000A987BA876F81788589859A8520E030E037
:104EE00040E85FE30E94250488232CF481E090E0F1
:104EF0009E838D833FC06F81788589859A8520E068
:104F00003FEF4FE757E40E94C50318164CF56B8539
:104F10007C858D859E8520E030E040E251E40E9452
:104F20001F02DC01CB01BC01CD010E944900DC0164
:104F3000CB019E838D830FC080E991E09C838B839E
:104F40008B819C810197F1F79C838B838D819E815E
:104F500001979E838D838D819E81009769F714C090
:104F60006F81788589859A850E944900DC01CB0193
:104F70009E838D838D819E819A83898389819A8185
:104F80000197F1F79A838983CE5ADE4F0FB6F894D2
:104F9000DEBF0FBECDBFCF91DF911F910F9108955E
:104FA000DF93CF93CDB7DEB782E063E040E00E94AD
:104FB000E80A82E064E040E00E94E80A82E065E0FE
:104FC00040E00E94E80A82E066E040E00E94E80AD1
:104FD000CF91DF910895DF93CF93CDB7DEB781E016
:104FE00061E00E940316CF91DF910895DF93CF9384
:104FF000CDB7DEB70E94D027CF91DF910895DF9320
:10500000CF93CDB7DEB76D970FB6F894DEBF0FBE66
:10501000CDBF1D8EF7C06091DB017091DC018091E6
:10502000DD010E947E1480E090E0AAEFB3E4898F56
:105030009A8FAB8FBC8F698D7A8D8B8D9C8D20E084
:1050400030E04AE755E40E941F02DC01CB018D8B62
:105050009E8BAF8BB88F6D897E898F89988D20E06C
:1050600030E040E85FE30E94250488232CF481E0CF
:1050700090E09C8B8B8B3FC06D897E898F89988D4A
:1050800020E03FEF4FE757E40E94C50318164CF5A8
:10509000698D7A8D8B8D9C8D20E030E040E251E46B
:1050A0000E941F02DC01CB01BC01CD010E9449001E
:1050B000DC01CB019C8B8B8B0FC080E991E09A8B3C
:1050C000898B89899A890197F1F79A8B898B8B89CA
:1050D0009C8901979C8B8B8B8B899C89009769F7A6
:1050E00014C06D897E898F89988D0E944900DC01EA
:1050F000CB019C8B8B8B8B899C89988B8F878F8521
:1051000098890197F1F7988B8F876091DB017091F7
:10511000DC018091DD010E94A01480E090E0AAEF04
:10512000B3E48B879C87AD87BE876B857C858D8537
:105130009E8520E030E04AE755E40E941F02DC0132
:10514000CB018F839887A987BA876F8178858985F6
:105150009A8520E030E040E85FE30E942504882340
:105160002CF481E090E09E838D833FC06F81788531
:1051700089859A8520E03FEF4FE757E40E94C503F9
:1051800018164CF56B857C858D859E8520E030E07A
:1051900040E251E40E941F02DC01CB01BC01CD01C1
:1051A0000E944900DC01CB019E838D830FC080E902
:1051B00091E09C838B838B819C810197F1F79C8389
:1051C0008B838D819E8101979E838D838D819E81AE
:1051D000009769F714C06F81788589859A850E9448
:1051E0004900DC01CB019E838D838D819E819A8352
:1051F000898389819A810197F1F79A8389838D8DBB
:105200008F5F8D8F8D8D8A3008F405CF6D960FB628
:10521000F894DEBF0FBECDBFCF91DF910895DF932D
:10522000CF93CDB7DEB7E0970FB6F894DEBF0FBED1
:10523000CDBF1DA61BA60E943D13EEC181E790E0E5
:105240000E943E121DA60CC08DA5282F30E0CE0175
:105250008E96FC01E20FF31F10828DA58F5F8DA744
:105260008DA5823088F31DA693C00E94700F8CA775
:105270008CA58F3FD1F38CA58F3F09F486C08DA5F7
:10528000282F30E0CE018E96FC01E20FF31F8CA593
:1052900080838DA5882321F481E060E00E9468125C
:1052A0008CA50E94071180E090E0A8E4B3E48FA3EE
:1052B00098A7A9A7BAA76FA178A589A59AA520E064
:1052C00030E04AE755E40E941F02DC01CB018BA3CA
:1052D0009CA3ADA3BEA36BA17CA18DA19EA120E048
:1052E00030E040E85FE30E94250488232CF481E04D
:1052F00090E09AA389A33FC06BA17CA18DA19EA140
:1053000020E03FEF4FE757E40E94C50318164CF525
:105310006FA178A589A59AA520E030E040E251E48C
:105320000E941F02DC01CB01BC01CD010E9449009B
:10533000DC01CB019AA389A30FC080E991E098A377
:105340008F8F8F8D98A10197F1F798A38F8F89A1E7
:105350009AA101979AA389A389A19AA1009769F7B5
:1053600014C06BA17CA18DA19EA10E944900DC010B
:10537000CB019AA389A389A19AA19E8F8D8F8D8D30
:105380009E8D0197F1F79E8F8D8F8DA58F5F8DA7D5
:105390008DA5823008F469CF18AACE018E9621E837
:1053A00030E0B9010E945C2E009709F08FC00E9486
:1053B0003D1384E890E00E943E126091DE017091FE
:1053C000DF018091E0010E947E140E94EB2780E0C3
:1053D00090E8ABE3B5E4898F9A8FAB8FBC8F698D72
:1053E0007A8D8B8D9C8D20E030E04AE755E40E9459
:1053F0001F02DC01CB018D8B9E8BAF8BB88F6D892B
:105400007E898F89988D20E030E040E85FE30E943C
:10541000250488232CF481E090E09C8B8B8B3FC08B
:105420006D897E898F89988D20E03FEF4FE757E4A3
:105430000E94C50318164CF5698D7A8D8B8D9C8D55
:1054400020E030E040E251E40E941F02DC01CB0189
:10545000BC01CD010E944900DC01CB019C8B8B8BF0
:105460000FC080E991E09A8B898B89899A8901978D
:10547000F1F79A8B898B8B899C8901979C8B8B8BFD
:105480008B899C89009769F714C06D897E898F8903
:10549000988D0E944900DC01CB019C8B8B8B8B8902
:1054A0009C89988B8F878F8598890197F1F7988BC6
:1054B0008F870E94F6276091DE017091DF01809155
:1054C000E0010E94A0140E943D13AAC00E943D1357
:1054D00081E990E00E943E126091DB017091DC0155
:1054E0008091DD010E947E1480E090E0AAE7B4E4A0
:1054F0008B879C87AD87BE876B857C858D859E85D8
:1055000020E030E04AE755E40E941F02DC01CB01B5
:105510008F839887A987BA876F81788589859A85CF
:1055200020E030E040E85FE30E94250488232CF46B
:1055300081E090E09E838D833FC06F81788589856F
:105540009A8520E03FEF4FE757E40E94C503181605
:105550004CF56B857C858D859E8520E030E040E2B2
:1055600051E40E941F02DC01CB01BC01CD010E946D
:105570004900DC01CB019E838D830FC080E991E05F
:105580009C838B838B819C810197F1F79C838B8318
:105590008D819E8101979E838D838D819E81009751
:1055A00069F714C06F81788589859A850E944900C2
:1055B000DC01CB019E838D838D819E819A838983BB
:1055C00089819A810197F1F79A8389836091DB0140
:1055D0007091DC018091DD010E94A0148BA58F5F8A
:1055E0008BA70E943D138BA58330B0F080EA90E03A
:1055F0000E943E126091F0017091F1018091F201E0
:105600000E940F090E94FF276091F0017091F10143
:105610008091F2010E942E098BA5833008F40ECEF2
:10562000E0960FB6F894DEBF0FBECDBFCF91DF91ED
:105630000895DF93CF93CDB7DEB72D970FB6F894CB
:10564000DEBF0FBECDBF0E94B0150E94A5116091B4
:10565000DB017091DC018091DD010E946914609191
:10566000DE017091DF018091E0010E946914609178
:10567000E1017091E2018091E3010E94691460915F
:10568000E4017091E5018091E6010E946914609146
:10569000E7017091E8018091E9010E94691460912D
:1056A000EA017091EB018091EC010E946914609114
:1056B000ED017091EE018091EF010E9469146091FB
:1056C000F0017091F1018091F2010E94EA080E94BC
:1056D000D4150E9417070E94DA0C0E94540F6091A3
:1056E000F3017091F4018091F5010E94EA08CE0166
:1056F00001969A878987EAEFF1E0FC87EB87F8E06B
:10570000FD87EB85FC8500808B859C8501969C87B9
:105710008B87E985FA85008289859A8501969A8723
:1057200089879D8591509D87ED85EE2351F70E94D5
:105730000F2928EF31E046E152E0EBE2FDE282E0A2
:10574000B9019F010E942D0880E060E00E9468126C
:1057500082EB90E00E943E12809110029091110223
:10576000CC01A0E0B0E0BC01CD010E94C81289EBE1
:1057700090E00E943E1280911002909111028333BA
:10578000910570F121C080E060E00E94681280E025
:1057900061E00E9403168CEB90E00E943E12CE0165
:1057A000019660E040E02FE00E9487126091F301D3
:1057B0007091F4018091F5010E940F0928E43DE207
:1057C00082E0B9010E94960E809115028823D9F2D9
:1057D0000E943D138091150281508093150215C0DF
:1057E00080911002909111028A31910528F080E099
:1057F00061E00E94031609C080911002909111028D
:105800008731910510F40E94D02780911202909167
:105810001302F9E0873F9F0748F16091E101709121
:10582000E2018091E3010E947E146091E401709195
:10583000E5018091E6010E947E146091E70170917C
:10584000E8018091E9010E947E146091EA01709163
:10585000EB018091EC010E947E146091ED0170914A
:10586000EE018091EF010E947E1463CF80911202BD
:105870009091130228E0883F920748F16091E1017E
:105880007091E2018091E3010E947E146091E40135
:105890007091E5018091E6010E947E146091E7011C
:1058A0007091E8018091E9010E947E146091EA0103
:1058B0007091EB018091EC010E947E146091ED01EA
:1058C0007091EE018091EF010E94A01432CF80917F
:1058D000120290911302E5E08B3F9E0748F1609120
:1058E000E1017091E2018091E3010E947E146091D8
:1058F000E4017091E5018091E6010E947E146091BF
:10590000E7017091E8018091E9010E947E146091A5
:10591000EA017091EB018091EC010E94A01460916A
:10592000ED017091EE018091EF010E94A01401CF72
:105930008091120290911302F3E08D3F9F0748F18E
:105940006091E1017091E2018091E3010E947E1477
:105950006091E4017091E5018091E6010E947E145E
:105960006091E7017091E8018091E9010E94A01423
:105970006091EA017091EB018091EC010E94A0140A
:105980006091ED017091EE018091EF010E94A014F1
:10599000D0CE809112029091130221E08F3F9207A6
:1059A00048F16091E1017091E2018091E3010E9470
:1059B0007E146091E4017091E5018091E6010E94FE
:1059C000A0146091E7017091E8018091E9010E94C3
:1059D000A0146091EA017091EB018091EC010E94AA
:1059E000A0146091ED017091EE018091EF010E9491
:1059F000A0149FCE80911202909113028E3F9105C8
:105A000008F497CE6091E1017091E2018091E30189
:105A10000E94A0146091E4017091E5018091E6017B
:105A20000E94A0146091E7017091E8018091E90162
:105A30000E94A0146091EA017091EB018091EC0149
:105A40000E94A0146091ED017091EE018091EF0130
:105A50000E94A0146ECEDF93CF93CDB7DEB74091F6
:105A600016025091170286EF91E020E132E0BA0170
:105A7000A9010E94C21480911802909119020E94FB
:105A800061139093130280931202CF91DF910895D6
:105A9000DF93CF93CDB7DEB76091F3017091F4013E
:105AA0008091F5010E942E09809115028F5F8093ED
:105AB0001502CF91DF910895AF92BF92CF92DF92FE
:105AC000EF92FF920F931F93DF93CF93CDB7DEB783
:105AD00060970FB6F894DEBF0FBECDBF69837A839F
